{
  "_format": "hh-sol-artifact-1",
  "contractName": "CrowdfundingWithTrust",
  "sourceName": "contracts/CrowdfundingWithTrust.sol",
  "abi": [
    {
      "inputs": [
        {
          "internalType": "address",
          "name": "_startup",
          "type": "address"
        },
        {
          "internalType": "uint256",
          "name": "_goal",
          "type": "uint256"
        }
      ],
      "stateMutability": "nonpayable",
      "type": "constructor"
    },
    {
      "anonymous": false,
      "inputs": [
        {
          "indexed": true,
          "internalType": "address",
          "name": "contributor",
          "type": "address"
        },
        {
          "indexed": false,
          "internalType": "uint256",
          "name": "amount",
          "type": "uint256"
        }
      ],
      "name": "Contributed",
      "type": "event"
    },
    {
      "anonymous": false,
      "inputs": [
        {
          "indexed": false,
          "internalType": "uint256",
          "name": "amount",
          "type": "uint256"
        }
      ],
      "name": "FundsReleased",
      "type": "event"
    },
    {
      "anonymous": false,
      "inputs": [],
      "name": "ProjectStarted",
      "type": "event"
    },
    {
      "inputs": [],
      "name": "contribute",
      "outputs": [],
      "stateMutability": "payable",
      "type": "function"
    },
    {
      "inputs": [
        {
          "internalType": "address",
          "name": "",
          "type": "address"
        }
      ],
      "name": "contributions",
      "outputs": [
        {
          "internalType": "uint256",
          "name": "",
          "type": "uint256"
        }
      ],
      "stateMutability": "view",
      "type": "function"
    },
    {
      "inputs": [],
      "name": "getBalance",
      "outputs": [
        {
          "internalType": "uint256",
          "name": "",
          "type": "uint256"
        }
      ],
      "stateMutability": "view",
      "type": "function"
    },
    {
      "inputs": [],
      "name": "goal",
      "outputs": [
        {
          "internalType": "uint256",
          "name": "",
          "type": "uint256"
        }
      ],
      "stateMutability": "view",
      "type": "function"
    },
    {
      "inputs": [],
      "name": "goalReached",
      "outputs": [
        {
          "internalType": "bool",
          "name": "",
          "type": "bool"
        }
      ],
      "stateMutability": "view",
      "type": "function"
    },
    {
      "inputs": [],
      "name": "isProjectStarted",
      "outputs": [
        {
          "internalType": "bool",
          "name": "",
          "type": "bool"
        }
      ],
      "stateMutability": "view",
      "type": "function"
    },
    {
      "inputs": [],
      "name": "markProgress",
      "outputs": [],
      "stateMutability": "nonpayable",
      "type": "function"
    },
    {
      "inputs": [],
      "name": "owner",
      "outputs": [
        {
          "internalType": "address",
          "name": "",
          "type": "address"
        }
      ],
      "stateMutability": "view",
      "type": "function"
    },
    {
      "inputs": [],
      "name": "releaseFunds",
      "outputs": [],
      "stateMutability": "nonpayable",
      "type": "function"
    },
    {
      "inputs": [],
      "name": "startup",
      "outputs": [
        {
          "internalType": "address",
          "name": "",
          "type": "address"
        }
      ],
      "stateMutability": "view",
      "type": "function"
    }
  ],
  "bytecode": "0x60806040523480156200001157600080fd5b5060405162000e5a38038062000e5a83398181016040528101906200003791906200023f565b600073ffffffffffffffffffffffffffffffffffffffff168273ffffffffffffffffffffffffffffffffffffffff1603620000a9576040517f08c379a0000000000000000000000000000000000000000000000000000000008152600401620000a090620002e7565b60405180910390fd5b60008111620000ef576040517f08c379a0000000000000000000000000000000000000000000000000000000008152600401620000e69062000359565b60405180910390fd5b336000806101000a81548173ffffffffffffffffffffffffffffffffffffffff021916908373ffffffffffffffffffffffffffffffffffffffff16021790555081600160006101000a81548173ffffffffffffffffffffffffffffffffffffffff021916908373ffffffffffffffffffffffffffffffffffffffff160217905550806002819055506000600360006101000a81548160ff02191690831515021790555050506200037b565b600080fd5b600073ffffffffffffffffffffffffffffffffffffffff82169050919050565b6000620001cc826200019f565b9050919050565b620001de81620001bf565b8114620001ea57600080fd5b50565b600081519050620001fe81620001d3565b92915050565b6000819050919050565b620002198162000204565b81146200022557600080fd5b50565b60008151905062000239816200020e565b92915050565b600080604083850312156200025957620002586200019a565b5b60006200026985828601620001ed565b92505060206200027c8582860162000228565b9150509250929050565b600082825260208201905092915050565b7f5374617274757020616464726573732063616e6e6f74206265207a65726f0000600082015250565b6000620002cf601e8362000286565b9150620002dc8262000297565b602082019050919050565b600060208201905081810360008301526200030281620002c0565b9050919050565b7f476f616c206d7573742062652067726561746572207468616e20300000000000600082015250565b600062000341601b8362000286565b91506200034e8262000309565b602082019050919050565b60006020820190508181036000830152620003748162000332565b9050919050565b610acf806200038b6000396000f3fe6080604052600436106100915760003560e01c80637d3d6522116100595780637d3d65221461016b5780638da5cb5b146101965780639a65db62146101c1578063b3892c64146101d8578063d7bb99ba1461020357610091565b806312065fe01461009657806330c11dd1146100c157806340193883146100ec57806342e94c901461011757806369d8957514610154575b600080fd5b3480156100a257600080fd5b506100ab61020d565b6040516100b89190610692565b60405180910390f35b3480156100cd57600080fd5b506100d6610215565b6040516100e391906106c8565b60405180910390f35b3480156100f857600080fd5b50610101610228565b60405161010e9190610692565b60405180910390f35b34801561012357600080fd5b5061013e60048036038101906101399190610746565b61022e565b60405161014b9190610692565b60405180910390f35b34801561016057600080fd5b50610169610246565b005b34801561017757600080fd5b50610180610410565b60405161018d91906106c8565b60405180910390f35b3480156101a257600080fd5b506101ab61041d565b6040516101b89190610782565b60405180910390f35b3480156101cd57600080fd5b506101d6610441565b005b3480156101e457600080fd5b506101ed61056a565b6040516101fa9190610782565b60405180910390f35b61020b610590565b005b600047905090565b600360009054906101000a900460ff1681565b60025481565b60046020528060005260406000206000915090505481565b600160009054906101000a900473ffffffffffffffffffffffffffffffffffffffff1673ffffffffffffffffffffffffffffffffffffffff163373ffffffffffffffffffffffffffffffffffffffff16146102d6576040517f08c379a00000000000000000000000000000000000000000000000000000000081526004016102cd906107fa565b60405180910390fd5b600360009054906101000a900460ff16610325576040517f08c379a000000000000000000000000000000000000000000000000000000000815260040161031c90610866565b60405180910390fd5b60004790506000811161036d576040517f08c379a0000000000000000000000000000000000000000000000000000000008152600401610364906108d2565b60405180910390fd5b600160009054906101000a900473ffffffffffffffffffffffffffffffffffffffff1673ffffffffffffffffffffffffffffffffffffffff166108fc829081150290604051600060405180830381858888f193505050501580156103d5573d6000803e3d6000fd5b507f952b264c8e0a06cddb4bbaa6d6af1d565145329fd95bbe72cb2b53942b2dc966816040516104059190610692565b60405180910390a150565b6000600254471015905090565b60008054906101000a900473ffffffffffffffffffffffffffffffffffffffff1681565b600160009054906101000a900473ffffffffffffffffffffffffffffffffffffffff1673ffffffffffffffffffffffffffffffffffffffff163373ffffffffffffffffffffffffffffffffffffffff16146104d1576040517f08c379a00000000000000000000000000000000000000000000000000000000081526004016104c89061093e565b60405180910390fd5b600360009054906101000a900460ff1615610521576040517f08c379a0000000000000000000000000000000000000000000000000000000008152600401610518906109aa565b60405180910390fd5b6001600360006101000a81548160ff0219169083151502179055507fcc341e2a1a2a5db2802ceb929eff88272857ed8c7dfe22dcba105ff40450cd5f60405160405180910390a1565b600160009054906101000a900473ffffffffffffffffffffffffffffffffffffffff1681565b600034116105d3576040517f08c379a00000000000000000000000000000000000000000000000000000000081526004016105ca90610a16565b60405180910390fd5b34600460003373ffffffffffffffffffffffffffffffffffffffff1673ffffffffffffffffffffffffffffffffffffffff16815260200190815260200160002060008282546106229190610a65565b925050819055503373ffffffffffffffffffffffffffffffffffffffff167f62722348256371b5147820d6cad90c40fd2da1ccee18c3ed52c0bca5a61dbbab3460405161066f9190610692565b60405180910390a2565b6000819050919050565b61068c81610679565b82525050565b60006020820190506106a76000830184610683565b92915050565b60008115159050919050565b6106c2816106ad565b82525050565b60006020820190506106dd60008301846106b9565b92915050565b600080fd5b600073ffffffffffffffffffffffffffffffffffffffff82169050919050565b6000610713826106e8565b9050919050565b61072381610708565b811461072e57600080fd5b50565b6000813590506107408161071a565b92915050565b60006020828403121561075c5761075b6106e3565b5b600061076a84828501610731565b91505092915050565b61077c81610708565b82525050565b60006020820190506107976000830184610773565b92915050565b600082825260208201905092915050565b7f4f6e6c7920737461727475702063616e20776974686472617700000000000000600082015250565b60006107e460198361079d565b91506107ef826107ae565b602082019050919050565b60006020820190508181036000830152610813816107d7565b9050919050565b7f50726f6a656374206861736e2774207374617274656400000000000000000000600082015250565b600061085060168361079d565b915061085b8261081a565b602082019050919050565b6000602082019050818103600083015261087f81610843565b9050919050565b7f4e6f2066756e647320746f2072656c6561736500000000000000000000000000600082015250565b60006108bc60138361079d565b91506108c782610886565b602082019050919050565b600060208201905081810360008301526108eb816108af565b9050919050565b7f4f6e6c7920737461727475702063616e206d61726b2070726f67726573730000600082015250565b6000610928601e8361079d565b9150610933826108f2565b602082019050919050565b600060208201905081810360008301526109578161091b565b9050919050565b7f50726f6a65637420616c72656164792073746172746564000000000000000000600082015250565b600061099460178361079d565b915061099f8261095e565b602082019050919050565b600060208201905081810360008301526109c381610987565b9050919050565b7f436f6e747269627574696f6e206d757374206265203e20300000000000000000600082015250565b6000610a0060188361079d565b9150610a0b826109ca565b602082019050919050565b60006020820190508181036000830152610a2f816109f3565b9050919050565b7f4e487b7100000000000000000000000000000000000000000000000000000000600052601160045260246000fd5b6000610a7082610679565b9150610a7b83610679565b9250828201905080821115610a9357610a92610a36565b5b9291505056fea264697066735822122080ec6b2880daca994adf1e25ba81f1ea006dc6194a264a2189e8941efda7c2aa64736f6c63430008140033",
  "linkReferences": {},
  "deployedLinkReferences": {}
}